:100000000C942A000C9447000C9447000C94470071
:100010000C9447000C9447000C9447000C94470044
:100020000C9447000C9447000C9447000C94490032
:100030000C9447000C9447000C9447000C94470024
:100040000C9447000C9447000C9447000C94470014
:100050000C94470011241FBECFE5D8E0DEBFCDBF12
:1000600010E0A0E6B0E0E4E9F4E002C005900D92F3
:10007000A036B107D9F710E0A0E6B0E001C01D92AC
:10008000A236B107E1F70E94A0000C9448020C943C
:1000900000001F920F920FB60F9211248F939F931F
:1000A000CF93DF93CDB7DEB7809160009091610070
:1000B00001969093610080936000DF91CF919F91B2
:1000C0008F910F900FBE0F901F901895CF93DF93D5
:1000D00000D0CDB7DEB79A8389830F900F90DF9160
:1000E000CF910895CF93DF93CDB7DEB783E590E04E
:1000F00021E0FC01208383E590E023E530E0F90175
:1001000020812864FC01208383E590E023E530E032
:10011000F90120812063FC0120837894DF91CF9145
:100120000895CF93DF930F92CDB7DEB789838CE527
:1001300090E02981FC0120830F90DF91CF910895F9
:100140000F931F93CF93DF93CDB7DEB72E970FB6E4
:10015000F894DEBF0FBECDBF87E390E028E0FC013E
:1001600020830E9472008CE590E0FC0120812F5FCB
:10017000FC01208380E090E0A0EAB1E489839A83C7
:10018000AB83BC8369817A818B819C8120E030E0E4
:100190004AE753E40E94BD01DC01CB018D839E83BD
:1001A000AF83B88711E06D817E818F81988520E0D3
:1001B00030E040E85FE30E943C0188230CF010E04F
:1001C000112329F081E090E09A87898746C011E0E9
:1001D0006D817E818F81988520E03FEF4FE757E466
:1001E0000E94B90118160CF010E0112361F1698129
:1001F0007A818B819C8120E030E040E251E40E94D2
:10020000BD01DC01CB01BC01CD010E944001DC013C
:10021000CB019A87898712C089E190E09C878B8700
:100220008B859C858C01C8010197F1F78C011C8797
:100230000B8789859A8501979A87898789859A8509
:10024000009751F718C06D817E818F8198850E943B
:100250004001DC01CB019A87898789859A859E8731
:100260008D878D859E858C01F8013197F1F78F017F
:100270001E870D8778CF77CF2FD008F481E00895BF
:1002800057D088F09F5790F0B92F9927B751A0F019
:10029000D1F0660F771F881F991F1AF0BA95C9F71A
:1002A00012C0B13081F05ED0B1E008955BC0672F1D
:1002B000782F8827B85F39F0B93FCCF386957795CA
:1002C0006795B395D9F73EF49095809570956195B3
:1002D0007F4F8F4F9F4F0895990F0008550FAA0B1E
:1002E000E0E8FEEF16161706E807F907C0F0121649
:1002F0001306E407F50798F0621B730B840B950B4C
:1003000039F40A2661F0232B242B252B21F40895A0
:100310000A2609F4A140A6958FEF811D811D08953D
:1003200057FD9058440F551F59F05F3F71F04795A6
:10033000880F97FB991F61F09F3F79F0879508958B
:10034000121613061406551FF2CF4695F1DF08C0AA
:10035000161617061806991FF1CF869571056105C7
:1003600008940895E894BB2766277727CB0197F96F
:100370000895B2DF08F48FEF08950BD078C069D0EC
:1003800028F06ED018F0952309F05AC05FC01124F0
:10039000EACFC6DFA0F3959FD1F3950F50E0551F2C
:1003A000629FF001729FBB27F00DB11D639FAA27CA
:1003B000F00DB11DAA1F649F6627B00DA11D661F19
:1003C000829F2227B00DA11D621F739FB00DA11D3A
:1003D000621F839FA00D611D221F749F3327A00DF4
:1003E000611D231F849F600D211D822F762F6A2F90
:1003F00011249F5750408AF0E1F088234AF0EE0F15
:10040000FF1FBB1F661F771F881F91505040A9F721
:100410009E3F510570F014C0A6CF5F3FECF3983EAD
:10042000DCF3869577956795B795F795E7959F5F88
:10043000C1F7FE2B880F911D9695879597F9089522
:1004400097F99F6780E870E060E008959FEF80EC87
:10045000089500240A94161617061806090608952A
:1004600000240A9412161306140605060895092E90
:100470000394000C11F4882352F0BB0F40F4BF2BFF
:1004800011F460FF04C06F5F7F4F8F4F9F4F08953F
:04049000F894FFCF0E
:00000001FF
