S01500005A6164616E69655F5461736B692E73726563F8
S11300000C942A000C9447000C9447000C9447006D
S11300100C9447000C9447000C9447000C94470040
S11300200C9447000C9447000C9449000C9447002E
S11300300C9447000C9447000C9447000C94470020
S11300400C9447000C9447000C9447000C94470010
S11300500C94470011241FBECFE5D8E0DEBFCDBF0E
S113006010E0A0E6B0E0E8E6F6E002C005900D92EC
S1130070A036B107D9F710E0A0E6B0E001C01D92A8
S1130080A83AB107E1F70E94FE020C9432030C94E3
S113009000001F920F920FB60F9211242F933F93DB
S11300A04F935F938F939F93EF93FF93CF93DF933C
S11300B000D0CDB7DEB71A821982B7C029813A8140
S11300C0C901880F991F880F991F880F991F821BD8
S11300D0930B8E599F4FFC0180819181009709F405
S11300E09CC029813A81C901880F991F880F991FE3
S11300F0880F991F821B930B8B599F4FFC018081A2
S11301009181009709F065C029813A81C901880F5E
S1130110991F880F991F880F991F821B930B895968
S11301209F4FFC0180819181009791F429813A814C
S1130130C901880F991F880F991F880F991F821B67
S1130140930B8C599F4FFC018081882309F067C071
S113015029813A81C901880F991F880F991F880F37
S1130160991F821B930B89599F4FFC014081518138
S113017029813A81C901880F991F880F991F880F17
S1130180991F821B930B8B599F4FFC015183408312
S113019029813A81C901880F991F880F991F880FF7
S11301A0991F821B930B8C599F4FFC018081482F10
S11301B04F5F29813A81C901880F991F880F991FC0
S11301C0880F991F821B930B8C599F4FFC0140830E
S11301D027C029813A81C901880F991F880F991F67
S11301E0880F991F821B930B8B599F4FFC018081B1
S11301F09181AC014150504029813A81C901880F55
S1130200991F880F991F880F991F821B930B8B5975
S11302109F4FFC015183408303C0000001C00000D4
S113022089819A8101969A83898389819A818A3006
S113023091050CF443CF0F900F90DF91CF91FF9174
S1130240EF919F918F915F914F913F912F910F90DB
S11302500FBE0F901F901895CF93DF93CDB7DEB7E5
S113026089E590E029E530E0F90120812260FC0174
S1130270208383E590E023E530E0F90120812360C9
S1130280FC01208383E590E023E530E0F90120813F
S11302902860FC0120838CE590E02AEFFC01208398
S11302A07894109261001092600001C000002091C7
S11302B0600030916100C901880F991F880F991F50
S11302C0880F991F821B930B8E599F4FFC018081CD
S11302D091810097A9F4809160009091610001964A
S11302E09093610080936000809160009091610020
S11302F08A309105DCF21092610010926000D6CF32
S11303002091600030916100C901880F991F880F06
S1130310991F880F991F821B930B8C599F4FFC01C7
S11303208081882309F457C02091600030916100D6
S1130330C901880F991F880F991F880F991F821B65
S1130340930B8E599F4FFC0180819181FC0109958B
S113035020916000309161004091600050916100F3
S1130360CA01880F991F880F991F880F991F841B32
S1130370950B8C599F4FFC018081482F4150C90136
S1130380880F991F880F991F880F991F821B930B41
S11303908C599F4FFC014083209160003091610093
S11303A0C901880F991F880F991F880F991F821BF5
S11303B0930B89599F4FFC0180819181009731F4FF
S11303C080916000909161000E945A021092610035
S11303D0109260006BCF8091600090916100019653
S11303E0909361008093600080916000909161001F
S11303F08A3091050CF45ACF10926100109260007B
S113040055CFCF93DF9300D000D000D0CDB7DEB767
S11304109A8389837C836B835E834D832D813E81A4
S1130420C901880F991F880F991F880F991F821B74
S1130430930B8E599F4F29813A81FC01318320838C
S11304402D813E81C901880F991F880F991F880F3C
S1130450991F821B930B8C599F4FFC0110822D8195
S11304603E81C901880F991F880F991F880F991F12
S1130470821B930B89599F4F2B813C81FC01318353
S113048020832D813E81C901880F991F880F991FF0
S1130490880F991F821B930B8B599F4FFC0111826C
S11304A0108226960FB6F894DEBF0FBECDBFDF9143
S11304B0CF910895CF93DF9300D0CDB7DEB79A8361
S11304C0898329813A81C901880F991F880F991F4F
S11304D0880F991F821B930B8E599F4FFC01118229
S11304E010820F900F90DF91CF910895CF93DF93F7
S11304F0CDB7DEB78BE390E0FC018081882354F410
S11305008BE390E02BE330E0F90120812F77FC01AD
S1130510208309C08BE390E02BE330E0F9012081D4
S11305202068FC012083DF91CF910895CF93DF935E
S1130530CDB7DEB78BE390E0FC018081882F90E09B
S113054080749070009751F08BE390E02BE330E0DF
S1130550F90120812F7BFC01208309C08BE390E00B
S11305602BE330E0F90120812064FC012083DF913A
S1130570CF910895CF93DF93CDB7DEB78BE390E0AF
S1130580FC018081882F90E080729070009751F078
S11305908BE390E02BE330E0F90120812F7DFC0117
S11305A0208309C08BE390E02BE330E0F901208144
S11305B02062FC012083DF91CF910895CF93DF93D4
S11305C0CDB7DEB78BE390E0FC018081882354F43F
S11305D08BE390E02BE330E0F90120812F7EFC01D6
S11305E0208309C08BE390E02BE330E0F901208104
S11305F02061FC012083DF91CF910895CF93DF9395
S1130600CDB7DEB78AE390E02FEFFC0120838BE3C4
S113061090E0FC01108286E792E065E070E040E043
S113062050E00E94010286E992E064E670E041E055
S113063050E00E9401028AEB92E06AEF70E042E02F
S113064050E00E9401028EED92E064EF71E043E01D
S113065050E00E9401020E942C0180E090E0DF91B2
S10B0660CF910895F894FFCF37
S9030000FC
